{
  "_format": "hh-sol-artifact-1",
  "contractName": "AjoToken",
  "sourceName": "contracts/AjoToken.sol",
  "abi": [
    {
      "inputs": [
        {
          "internalType": "uint256",
          "name": "initialSupply",
          "type": "uint256"
        }
      ],
      "stateMutability": "nonpayable",
      "type": "constructor"
    },
    {
      "inputs": [
        {
          "internalType": "address",
          "name": "spender",
          "type": "address"
        },
        {
          "internalType": "uint256",
          "name": "allowance",
          "type": "uint256"
        },
        {
          "internalType": "uint256",
          "name": "needed",
          "type": "uint256"
        }
      ],
      "name": "ERC20InsufficientAllowance",
      "type": "error"
    },
    {
      "inputs": [
        {
          "internalType": "address",
          "name": "sender",
          "type": "address"
        },
        {
          "internalType": "uint256",
          "name": "balance",
          "type": "uint256"
        },
        {
          "internalType": "uint256",
          "name": "needed",
          "type": "uint256"
        }
      ],
      "name": "ERC20InsufficientBalance",
      "type": "error"
    },
    {
      "inputs": [
        {
          "internalType": "address",
          "name": "approver",
          "type": "address"
        }
      ],
      "name": "ERC20InvalidApprover",
      "type": "error"
    },
    {
      "inputs": [
        {
          "internalType": "address",
          "name": "receiver",
          "type": "address"
        }
      ],
      "name": "ERC20InvalidReceiver",
      "type": "error"
    },
    {
      "inputs": [
        {
          "internalType": "address",
          "name": "sender",
          "type": "address"
        }
      ],
      "name": "ERC20InvalidSender",
      "type": "error"
    },
    {
      "inputs": [
        {
          "internalType": "address",
          "name": "spender",
          "type": "address"
        }
      ],
      "name": "ERC20InvalidSpender",
      "type": "error"
    },
    {
      "anonymous": false,
      "inputs": [
        {
          "indexed": true,
          "internalType": "address",
          "name": "owner",
          "type": "address"
        },
        {
          "indexed": true,
          "internalType": "address",
          "name": "spender",
          "type": "address"
        },
        {
          "indexed": false,
          "internalType": "uint256",
          "name": "value",
          "type": "uint256"
        }
      ],
      "name": "Approval",
      "type": "event"
    },
    {
      "anonymous": false,
      "inputs": [
        {
          "indexed": true,
          "internalType": "address",
          "name": "from",
          "type": "address"
        },
        {
          "indexed": true,
          "internalType": "address",
          "name": "to",
          "type": "address"
        },
        {
          "indexed": false,
          "internalType": "uint256",
          "name": "value",
          "type": "uint256"
        }
      ],
      "name": "Transfer",
      "type": "event"
    },
    {
      "inputs": [
        {
          "internalType": "address",
          "name": "owner",
          "type": "address"
        },
        {
          "internalType": "address",
          "name": "spender",
          "type": "address"
        }
      ],
      "name": "allowance",
      "outputs": [
        {
          "internalType": "uint256",
          "name": "",
          "type": "uint256"
        }
      ],
      "stateMutability": "view",
      "type": "function"
    },
    {
      "inputs": [
        {
          "internalType": "address",
          "name": "spender",
          "type": "address"
        },
        {
          "internalType": "uint256",
          "name": "value",
          "type": "uint256"
        }
      ],
      "name": "approve",
      "outputs": [
        {
          "internalType": "bool",
          "name": "",
          "type": "bool"
        }
      ],
      "stateMutability": "nonpayable",
      "type": "function"
    },
    {
      "inputs": [
        {
          "internalType": "address",
          "name": "account",
          "type": "address"
        }
      ],
      "name": "balanceOf",
      "outputs": [
        {
          "internalType": "uint256",
          "name": "",
          "type": "uint256"
        }
      ],
      "stateMutability": "view",
      "type": "function"
    },
    {
      "inputs": [],
      "name": "decimals",
      "outputs": [
        {
          "internalType": "uint8",
          "name": "",
          "type": "uint8"
        }
      ],
      "stateMutability": "view",
      "type": "function"
    },
    {
      "inputs": [
        {
          "internalType": "uint256",
          "name": "amount",
          "type": "uint256"
        }
      ],
      "name": "mint",
      "outputs": [],
      "stateMutability": "nonpayable",
      "type": "function"
    },
    {
      "inputs": [],
      "name": "name",
      "outputs": [
        {
          "internalType": "string",
          "name": "",
          "type": "string"
        }
      ],
      "stateMutability": "view",
      "type": "function"
    },
    {
      "inputs": [],
      "name": "owner",
      "outputs": [
        {
          "internalType": "address",
          "name": "",
          "type": "address"
        }
      ],
      "stateMutability": "view",
      "type": "function"
    },
    {
      "inputs": [],
      "name": "symbol",
      "outputs": [
        {
          "internalType": "string",
          "name": "",
          "type": "string"
        }
      ],
      "stateMutability": "view",
      "type": "function"
    },
    {
      "inputs": [],
      "name": "totalSupply",
      "outputs": [
        {
          "internalType": "uint256",
          "name": "",
          "type": "uint256"
        }
      ],
      "stateMutability": "view",
      "type": "function"
    },
    {
      "inputs": [
        {
          "internalType": "address",
          "name": "to",
          "type": "address"
        },
        {
          "internalType": "uint256",
          "name": "value",
          "type": "uint256"
        }
      ],
      "name": "transfer",
      "outputs": [
        {
          "internalType": "bool",
          "name": "",
          "type": "bool"
        }
      ],
      "stateMutability": "nonpayable",
      "type": "function"
    },
    {
      "inputs": [
        {
          "internalType": "address",
          "name": "from",
          "type": "address"
        },
        {
          "internalType": "address",
          "name": "to",
          "type": "address"
        },
        {
          "internalType": "uint256",
          "name": "value",
          "type": "uint256"
        }
      ],
      "name": "transferFrom",
      "outputs": [
        {
          "internalType": "bool",
          "name": "",
          "type": "bool"
        }
      ],
      "stateMutability": "nonpayable",
      "type": "function"
    }
  ],
  "bytecode": "0x60806040523480156200001157600080fd5b5060405162000c8438038062000c84833981016040819052620000349162000244565b6040518060400160405280600881526020016720b537aa37b5b2b760c11b81525060405180604001604052806003815260200162414a4f60e81b815250816003908162000082919062000305565b50600462000091828262000305565b5050600580546001600160a01b03191633908117909155620000c89150620000c283670de0b6b3a7640000620003e7565b620000cf565b506200041d565b6001600160a01b038216620000ff5760405163ec442f0560e01b8152600060048201526024015b60405180910390fd5b6200010d6000838362000111565b5050565b6001600160a01b0383166200014057806002600082825462000134919062000407565b90915550620001b49050565b6001600160a01b03831660009081526020819052604090205481811015620001955760405163391434e360e21b81526001600160a01b03851660048201526024810182905260448101839052606401620000f6565b6001600160a01b03841660009081526020819052604090209082900390555b6001600160a01b038216620001d257600280548290039055620001f1565b6001600160a01b03821660009081526020819052604090208054820190555b816001600160a01b0316836001600160a01b03167fddf252ad1be2c89b69c2b068fc378daa952ba7f163c4a11628f55a4df523b3ef836040516200023791815260200190565b60405180910390a3505050565b6000602082840312156200025757600080fd5b5051919050565b634e487b7160e01b600052604160045260246000fd5b600181811c908216806200028957607f821691505b602082108103620002aa57634e487b7160e01b600052602260045260246000fd5b50919050565b601f82111562000300576000816000526020600020601f850160051c81016020861015620002db5750805b601f850160051c820191505b81811015620002fc57828155600101620002e7565b5050505b505050565b81516001600160401b038111156200032157620003216200025e565b620003398162000332845462000274565b84620002b0565b602080601f831160018114620003715760008415620003585750858301515b600019600386901b1c1916600185901b178555620002fc565b600085815260208120601f198616915b82811015620003a25788860151825594840194600190910190840162000381565b5085821015620003c15787850151600019600388901b60f8161c191681555b5050505050600190811b01905550565b634e487b7160e01b600052601160045260246000fd5b8082028115828204841417620004015762000401620003d1565b92915050565b80820180821115620004015762000401620003d1565b610857806200042d6000396000f3fe608060405234801561001057600080fd5b50600436106100a95760003560e01c806370a082311161007157806370a08231146101235780638da5cb5b1461014c57806395d89b4114610177578063a0712d681461017f578063a9059cbb14610194578063dd62ed3e146101a757600080fd5b806306fdde03146100ae578063095ea7b3146100cc57806318160ddd146100ef57806323b872dd14610101578063313ce56714610114575b600080fd5b6100b66101e0565b6040516100c39190610668565b60405180910390f35b6100df6100da3660046106d3565b610272565b60405190151581526020016100c3565b6002545b6040519081526020016100c3565b6100df61010f3660046106fd565b61028c565b604051601281526020016100c3565b6100f3610131366004610739565b6001600160a01b031660009081526020819052604090205490565b60055461015f906001600160a01b031681565b6040516001600160a01b0390911681526020016100c3565b6100b66102b0565b61019261018d36600461075b565b6102bf565b005b6100df6101a23660046106d3565b610332565b6100f36101b5366004610774565b6001600160a01b03918216600090815260016020908152604080832093909416825291909152205490565b6060600380546101ef906107a7565b80601f016020809104026020016040519081016040528092919081815260200182805461021b906107a7565b80156102685780601f1061023d57610100808354040283529160200191610268565b820191906000526020600020905b81548152906001019060200180831161024b57829003601f168201915b5050505050905090565b600033610280818585610340565b60019150505b92915050565b60003361029a858285610352565b6102a58585856103d0565b506001949350505050565b6060600480546101ef906107a7565b6005546001600160a01b031633146103145760405162461bcd60e51b815260206004820152601360248201527213db9b1e481bdddb995c8818d85b881b5a5b9d606a1b60448201526064015b60405180910390fd5b61032f3361032a83670de0b6b3a76400006107f7565b61042f565b50565b6000336102808185856103d0565b61034d8383836001610469565b505050565b6001600160a01b0383811660009081526001602090815260408083209386168352929052205460001981146103ca57818110156103bb57604051637dc7a0d960e11b81526001600160a01b0384166004820152602481018290526044810183905260640161030b565b6103ca84848484036000610469565b50505050565b6001600160a01b0383166103fa57604051634b637e8f60e11b81526000600482015260240161030b565b6001600160a01b0382166104245760405163ec442f0560e01b81526000600482015260240161030b565b61034d83838361053e565b6001600160a01b0382166104595760405163ec442f0560e01b81526000600482015260240161030b565b6104656000838361053e565b5050565b6001600160a01b0384166104935760405163e602df0560e01b81526000600482015260240161030b565b6001600160a01b0383166104bd57604051634a1406b160e11b81526000600482015260240161030b565b6001600160a01b03808516600090815260016020908152604080832093871683529290522082905580156103ca57826001600160a01b0316846001600160a01b03167f8c5be1e5ebec7d5bd14f71427d1e84f3dd0314c0f7b2291e5b200ac8c7c3b9258460405161053091815260200190565b60405180910390a350505050565b6001600160a01b03831661056957806002600082825461055e919061080e565b909155506105db9050565b6001600160a01b038316600090815260208190526040902054818110156105bc5760405163391434e360e21b81526001600160a01b0385166004820152602481018290526044810183905260640161030b565b6001600160a01b03841660009081526020819052604090209082900390555b6001600160a01b0382166105f757600280548290039055610616565b6001600160a01b03821660009081526020819052604090208054820190555b816001600160a01b0316836001600160a01b03167fddf252ad1be2c89b69c2b068fc378daa952ba7f163c4a11628f55a4df523b3ef8360405161065b91815260200190565b60405180910390a3505050565b60006020808352835180602085015260005b818110156106965785810183015185820160400152820161067a565b506000604082860101526040601f19601f8301168501019250505092915050565b80356001600160a01b03811681146106ce57600080fd5b919050565b600080604083850312156106e657600080fd5b6106ef836106b7565b946020939093013593505050565b60008060006060848603121561071257600080fd5b61071b846106b7565b9250610729602085016106b7565b9150604084013590509250925092565b60006020828403121561074b57600080fd5b610754826106b7565b9392505050565b60006020828403121561076d57600080fd5b5035919050565b6000806040838503121561078757600080fd5b610790836106b7565b915061079e602084016106b7565b90509250929050565b600181811c908216806107bb57607f821691505b6020821081036107db57634e487b7160e01b600052602260045260246000fd5b50919050565b634e487b7160e01b600052601160045260246000fd5b8082028115828204841417610286576102866107e1565b80820180821115610286576102866107e156fea26469706673582212209d5af4c1a577bfd589d69d430337ff07ffacd04445305625c10f6f3ff1f638b864736f6c63430008180033",
  "linkReferences": {},
  "deployedLinkReferences": {}
}