{
  "_format": "hh-sol-artifact-1",
  "contractName": "Timelock",
  "sourceName": "contracts/Timelock.sol",
  "abi": [
    {
      "inputs": [
        {
          "internalType": "address",
          "name": "_tokenAddress",
          "type": "address"
        }
      ],
      "stateMutability": "nonpayable",
      "type": "constructor"
    },
    {
      "anonymous": false,
      "inputs": [
        {
          "indexed": true,
          "internalType": "address",
          "name": "_from",
          "type": "address"
        },
        {
          "indexed": false,
          "internalType": "uint256",
          "name": "_amount",
          "type": "uint256"
        },
        {
          "indexed": false,
          "internalType": "bool",
          "name": "_isManual",
          "type": "bool"
        }
      ],
      "name": "Deposit",
      "type": "event"
    },
    {
      "anonymous": false,
      "inputs": [
        {
          "indexed": true,
          "internalType": "address",
          "name": "_address",
          "type": "address"
        },
        {
          "indexed": false,
          "internalType": "uint256",
          "name": "_totalBalance",
          "type": "uint256"
        }
      ],
      "name": "TotalBalanceUpdated",
      "type": "event"
    },
    {
      "anonymous": false,
      "inputs": [
        {
          "indexed": true,
          "internalType": "address",
          "name": "_to",
          "type": "address"
        },
        {
          "indexed": false,
          "internalType": "uint256",
          "name": "_amount",
          "type": "uint256"
        },
        {
          "indexed": false,
          "internalType": "bool",
          "name": "_isManual",
          "type": "bool"
        }
      ],
      "name": "Withdrawal",
      "type": "event"
    },
    {
      "inputs": [
        {
          "internalType": "uint256",
          "name": "_amount",
          "type": "uint256"
        }
      ],
      "name": "deposit",
      "outputs": [],
      "stateMutability": "nonpayable",
      "type": "function"
    },
    {
      "inputs": [
        {
          "internalType": "address",
          "name": "_address",
          "type": "address"
        }
      ],
      "name": "getTotalBalance",
      "outputs": [
        {
          "internalType": "uint256",
          "name": "",
          "type": "uint256"
        }
      ],
      "stateMutability": "view",
      "type": "function"
    },
    {
      "inputs": [
        {
          "internalType": "address",
          "name": "",
          "type": "address"
        }
      ],
      "name": "manualBalances",
      "outputs": [
        {
          "internalType": "uint256",
          "name": "",
          "type": "uint256"
        }
      ],
      "stateMutability": "view",
      "type": "function"
    },
    {
      "inputs": [],
      "name": "owner",
      "outputs": [
        {
          "internalType": "address",
          "name": "",
          "type": "address"
        }
      ],
      "stateMutability": "view",
      "type": "function"
    },
    {
      "inputs": [],
      "name": "tokenAddress",
      "outputs": [
        {
          "internalType": "address",
          "name": "",
          "type": "address"
        }
      ],
      "stateMutability": "view",
      "type": "function"
    },
    {
      "inputs": [
        {
          "internalType": "uint256",
          "name": "_amount",
          "type": "uint256"
        }
      ],
      "name": "withdraw",
      "outputs": [],
      "stateMutability": "nonpayable",
      "type": "function"
    },
    {
      "stateMutability": "payable",
      "type": "receive"
    }
  ],
  "bytecode": "0x608060405234801561001057600080fd5b50604051610c9d380380610c9d8339818101604052810190610032919061011c565b336000806101000a81548173ffffffffffffffffffffffffffffffffffffffff021916908373ffffffffffffffffffffffffffffffffffffffff16021790555080600260006101000a81548173ffffffffffffffffffffffffffffffffffffffff021916908373ffffffffffffffffffffffffffffffffffffffff16021790555050610149565b600080fd5b600073ffffffffffffffffffffffffffffffffffffffff82169050919050565b60006100e9826100be565b9050919050565b6100f9816100de565b811461010457600080fd5b50565b600081519050610116816100f0565b92915050565b600060208284031215610132576101316100b9565b5b600061014084828501610107565b91505092915050565b610b45806101586000396000f3fe6080604052600436106100595760003560e01c80632e1a7d4d1461009e57806385396006146100c75780638da5cb5b146101045780639d76ea581461012f578063b6b55f251461015a578063d3d381931461018357610099565b36610099576040517f08c379a00000000000000000000000000000000000000000000000000000000081526004016100909061073c565b60405180910390fd5b600080fd5b3480156100aa57600080fd5b506100c560048036038101906100c09190610797565b6101c0565b005b3480156100d357600080fd5b506100ee60048036038101906100e99190610822565b610427565b6040516100fb919061085e565b60405180910390f35b34801561011057600080fd5b5061011961043f565b6040516101269190610888565b60405180910390f35b34801561013b57600080fd5b50610144610463565b6040516101519190610888565b60405180910390f35b34801561016657600080fd5b50610181600480360381019061017c9190610797565b610489565b005b34801561018f57600080fd5b506101aa60048036038101906101a59190610822565b610670565b6040516101b7919061085e565b60405180910390f35b600160003373ffffffffffffffffffffffffffffffffffffffff1673ffffffffffffffffffffffffffffffffffffffff16815260200190815260200160002054811115610242576040517f08c379a0000000000000000000000000000000000000000000000000000000008152600401610239906108ef565b60405180910390fd5b6000600260009054906101000a900473ffffffffffffffffffffffffffffffffffffffff1690508073ffffffffffffffffffffffffffffffffffffffff1663a9059cbb33846040518363ffffffff1660e01b81526004016102a492919061090f565b6020604051808303816000875af11580156102c3573d6000803e3d6000fd5b505050506040513d601f19601f820116820180604052508101906102e79190610970565b610326576040517f08c379a000000000000000000000000000000000000000000000000000000000815260040161031d906109e9565b60405180910390fd5b81600160003373ffffffffffffffffffffffffffffffffffffffff1673ffffffffffffffffffffffffffffffffffffffff16815260200190815260200160002060008282546103759190610a38565b925050819055503373ffffffffffffffffffffffffffffffffffffffff167f06e0c61e7e9f4912ee1f3ce060b59207b98f9a232d711462af3166aeeed1250a8360016040516103c5929190610a7b565b60405180910390a23373ffffffffffffffffffffffffffffffffffffffff167fe933044e76d88c49127d0dcb87587df5320a3a8cd3b83f99a4549dff27b5854a61040e33610670565b60405161041b919061085e565b60405180910390a25050565b60016020528060005260406000206000915090505481565b60008054906101000a900473ffffffffffffffffffffffffffffffffffffffff1681565b600260009054906101000a900473ffffffffffffffffffffffffffffffffffffffff1681565b6000600260009054906101000a900473ffffffffffffffffffffffffffffffffffffffff1690508073ffffffffffffffffffffffffffffffffffffffff166323b872dd3330856040518463ffffffff1660e01b81526004016104ed93929190610aa4565b6020604051808303816000875af115801561050c573d6000803e3d6000fd5b505050506040513d601f19601f820116820180604052508101906105309190610970565b61056f576040517f08c379a0000000000000000000000000000000000000000000000000000000008152600401610566906109e9565b60405180910390fd5b81600160003373ffffffffffffffffffffffffffffffffffffffff1673ffffffffffffffffffffffffffffffffffffffff16815260200190815260200160002060008282546105be9190610adb565b925050819055503373ffffffffffffffffffffffffffffffffffffffff167f693c1828300d1cab0919b948d714897f817e305af51c026ad14233b6a8939adb83600060405161060e929190610a7b565b60405180910390a23373ffffffffffffffffffffffffffffffffffffffff167fe933044e76d88c49127d0dcb87587df5320a3a8cd3b83f99a4549dff27b5854a61065733610670565b604051610664919061085e565b60405180910390a25050565b6000600160008373ffffffffffffffffffffffffffffffffffffffff1673ffffffffffffffffffffffffffffffffffffffff168152602001908152602001600020549050919050565b600082825260208201905092915050565b7f436f6e747261637420646f6573206e6f7420616363657074204574686572206460008201527f69726563746c7900000000000000000000000000000000000000000000000000602082015250565b60006107266027836106b9565b9150610731826106ca565b604082019050919050565b6000602082019050818103600083015261075581610719565b9050919050565b600080fd5b6000819050919050565b61077481610761565b811461077f57600080fd5b50565b6000813590506107918161076b565b92915050565b6000602082840312156107ad576107ac61075c565b5b60006107bb84828501610782565b91505092915050565b600073ffffffffffffffffffffffffffffffffffffffff82169050919050565b60006107ef826107c4565b9050919050565b6107ff816107e4565b811461080a57600080fd5b50565b60008135905061081c816107f6565b92915050565b6000602082840312156108385761083761075c565b5b60006108468482850161080d565b91505092915050565b61085881610761565b82525050565b6000602082019050610873600083018461084f565b92915050565b610882816107e4565b82525050565b600060208201905061089d6000830184610879565b92915050565b7f496e73756666696369656e74206d616e75616c2062616c616e63650000000000600082015250565b60006108d9601b836106b9565b91506108e4826108a3565b602082019050919050565b60006020820190508181036000830152610908816108cc565b9050919050565b60006040820190506109246000830185610879565b610931602083018461084f565b9392505050565b60008115159050919050565b61094d81610938565b811461095857600080fd5b50565b60008151905061096a81610944565b92915050565b6000602082840312156109865761098561075c565b5b60006109948482850161095b565b91505092915050565b7f5472616e73666572206661696c65640000000000000000000000000000000000600082015250565b60006109d3600f836106b9565b91506109de8261099d565b602082019050919050565b60006020820190508181036000830152610a02816109c6565b9050919050565b7f4e487b7100000000000000000000000000000000000000000000000000000000600052601160045260246000fd5b6000610a4382610761565b9150610a4e83610761565b9250828203905081811115610a6657610a65610a09565b5b92915050565b610a7581610938565b82525050565b6000604082019050610a90600083018561084f565b610a9d6020830184610a6c565b9392505050565b6000606082019050610ab96000830186610879565b610ac66020830185610879565b610ad3604083018461084f565b949350505050565b6000610ae682610761565b9150610af183610761565b9250828201905080821115610b0957610b08610a09565b5b9291505056fea264697066735822122022773735843e4dd7aa3baafb86a7a1b2612043648f4b20320d37a41dd16c484d64736f6c63430008180033",
  "linkReferences": {},
  "deployedLinkReferences": {}
}